:100000000C94FD000C941A010C941A010C941A0122
:100010000C941A010C941A010C941A010C941A01F4
:100020000C941A010C941A010C94FD050C943806DA
:100030000C941A010C941A010C941A010C941A01D4
:100040000C941A010C941A010C941A010C941A01C4
:100050000C941A010C941A010C941A010C941A01B4
:100060000C941C010C941A010C941A010C941A01A2
:100070000C941A010C941A010C941A010C941A0194
:100080000C941A010C941A010C941A010C941A0184
:100090000C941A010C941A010C941A010C941A0174
:1000A0000C941A010C941A010C941A019A059705E4
:1000B000940591058E058B058805850582057F05CC
:1000C0007C0579057605730570056D056A0567057C
:1000D000640561055E055B055805550552054F052C
:1000E0004C0549054605430540053D053A053705DC
:1000F000340531052E052B052805250522051F058C
:100100001C0519051605130510050D050A0507053B
:1001100004050105FE04FB04F804F504F204EF04F1
:10012000EC04E904E604E304E004DD04DA047765A2
:1001300061706F6E20646F776E2000776561706FFD
:100140006E2075702000000100007A01120002008C
:10015000008C014300030000CF010401030904D314
:10016000011202030904E7010603030904EF010871
:100170000001C11201803601813612010002020025
:100180000010C0167A0400010102030109024300B5
:10019000020100C03209040000010202010005242E
:1001A00000100105240101010424020605240600B3
:1001B000010705820310004009040100020A000043
:1001C0000007050302400000070584024000000408
:1001D00003090412034A002E00200046006900654E
:1001E000006E006500000006034D003200000008AC
:1001F0000334003100300000000011241FBECFEF97
:10020000DAE0DEBFCDBF11E0A0E0B1E0E6E3F6E169
:1002100002C005900D92A431B107D9F711E0A4E115
:10022000B1E001C01D92A634B107E1F70E94D001F0
:100230000C94190B0C9400001F920F920FB60F92A2
:1002400011248F939F93EF93FF939EB58EE78EBDFE
:10025000809121018A3180F480912101E82FF0E022
:10026000E45DFE4F90838F5F809321019A3031F4DB
:1002700081E08093200102C010922101FF91EF9153
:100280009F918F910F900FBE0F901F9018958091A6
:100290002001882309F483C080912101873008F070
:1002A0007AC080912101863008F475C020912C011C
:1002B000332727FD3095205330403093150120938C
:1002C0001401E0912D01FF27E7FDF095F097F093E1
:1002D0000101E093000140912E01552747FD509503
:1002E00040535040509317014093160160912F01E5
:1002F000772767FD7095605370407093030160939A
:10030000020180913001992787FD9095C0979093C5
:10031000090180930801C901B3E0880F991FBA95BC
:10032000E1F7220F331F820F931F8E0F9F1F9093B1
:100330000501809304019A01F3E0220F331FFA951F
:10034000E1F7440F551F240F351F260F371F309339
:100350000701209306010E9481088AE00E942A0476
:100360008DE00E942A0480910601909107010E946D
:1003700081088AE00E942A048DE00E942A0480916C
:100380000801909109010E9481088AE00E942A04D4
:100390008DE00E942A0410922101109220010895FC
:1003A000AF92BF92DF92EF92FF920F931F93CF9382
:1003B000DF930E94D203239A8CB580648CBD8CB5E8
:1003C00080688CBD789480E8809361001092610011
:1003D00085BF85BF579A249A259A509A809A819A08
:1003E000269A3F988498859887988F98569A869AE7
:1003F0008E988091C100877F8093C1008091C10059
:100400008B7F8093C1008091C1008D7F8093C1005C
:100410008091C10081608093C1008091C3008D7F75
:100420008093C3008091C3008E7F8093C30080912E
:10043000C20081608093C2008091C2008860809376
:10044000C2008091C2008B7F8093C2008FEF8093A7
:10045000D10085B58B7F85BD85B58D7F85BD85B583
:10046000816085BD85B5877F85BD84B5826084BD8B
:1004700084B5816084BD84B58F7E84BD84B580627F
:1004800084BD809191008E7F809391008091910036
:100490008D7F809391008091910084608093910082
:1004A000809191008F7E809391008091910088606F
:1004B00080939100809190008D7F80939000809137
:1004C00090008E7F8093900084E294EF9093990047
:1004D00080939800809190008F7B80939000809112
:1004E00090008F7780939000809181008B7F809324
:1004F00081008091810082608093810080918100E1
:100500008E7F809381008091810080618093810043
:10051000809181008860809381008091800082605A
:10052000809380008091800081608093800080E4CF
:100530009CE99093890080938800809180008F7E51
:10054000809380008091800080628093800026E903
:10055000D22E98ECE92EFF24FA9402E314E6CCE3C1
:10056000DFE084ECA82E89E0B82E0E94470180913C
:1005700004019091050186309105A4F02C9A2D98E4
:100580008830910551F18930910534F48630910518
:10059000F1F0079779F51EC08930910509F10A97A6
:1005A00049F521C08530910509F12C982D9A8230AA
:1005B000910599F0833091052CF40097A1F00197F3
:1005C000C9F40EC08330910529F0049799F4009383
:1005D000D20010C01093D2000DC0D092D2000AC039
:1005E000E092D20007C0F092D20004C01092D20074
:1005F0002C9A2D9A809106019091070186309105E1
:10060000A4F0889A89988830910541F18930910544
:1006100034F486309105F1F0079749F51DC0893013
:100620009105F1F00A9719F51DC085309105E1F0AB
:100630008898899A8230910589F0833091052CF44D
:10064000009781F0019799F40BC08330910521F058
:10065000049769F408BD0BC018BD09C0D8BC07C019
:10066000E8BC05C0F8BC03C018BC889A899A2091E0
:1006700008013091090180910A0190910B0128171E
:100680003907F1F02130310521F022303105C1F474
:1006900007C0D0938B00C0938A008BE391E006C023
:1006A000B0928B00A0928A008EE291E00E94A30794
:1006B000809108019091090190930B0180930A01A8
:1006C0007F993DC080912A0190912B0101969093D2
:1006D0002B0180932A0180911E0190911F01892B8B
:1006E00071F160919400709195007093270160936F
:1006F000260110921F0110921E01209128013091B5
:100700002901621B730B80E090E00E9452092DEBDF
:1007100037E346E058E30E94E0099B01AC0160E04A
:1007200070E080E89FE30E94B9080E94210970935D
:1007300023016093220110929500109294007F9BF8
:100740001BC080911E0190911F01019690931F0183
:1007500080931E0180912A0190912B01892B61F0D9
:1007600080919400909195009093290180932801A5
:1007700010922B0110922A01809122019091230165
:10078000895C9040873C910510F48E9A01C08E9848
:10079000379904C07C9902C07D9B02C05E9AE5CE69
:1007A0005E98E3CE81E08093D70080EA8093D80002
:1007B00082E189BD09B400FEFDCF80E98093D800B5
:1007C0001092E00010921A0110921B018CE08093AD
:1007D000E2007894089580911A0108959FB7F894E3
:1007E00080911A01882339F083E08093E900809199
:1007F000E80085FD03C09FBF8FEF08952091F100B1
:100800008091E80085FD03C08BE68093E8009FBFE0
:10081000822F08959FB7F89480911A01882329F0B8
:1008200083E08093E9008091F2009FBF089580915A
:100830001A01882371F09FB7F89483E08093E90050
:100840002BE602C02093E8008091E80085FDFACFF6
:100850009FBF0895482F80911A018823D9F12FB79F
:10086000F89484E08093E90080911D01882341F091
:100870008091E80085FD02C02FBF12C010921D01BB
:100880009091E400975E34E08091E80085FD13C00C
:100890002FBF8091E400891729F481E080931D0126
:1008A0008FEF089580911A018823A1F02FB7F89453
:1008B0003093E900E9CF4093F1008091E80085FD95
:1008C00003C08AE38093E80085E080931C012FBF7A
:1008D00080E008958FEF0895282F80911A018823D2
:1008E00051F09FB7F89484E08093E9008091E8008C
:1008F00085FD03C09FBF8FEF08952093F100809185
:10090000E80085FD03C08AE38093E80085E08093DA
:100910001C019FBF80E00895CF93DF93EC0180918D
:100920001A01882309F41CC13FB7F89484E080932E
:10093000E90080911D01882309F407C18091E80036
:1009400085FD02C03FBF0CC110921D01FEC09091F9
:10095000E400975E8091E80085FD13C03FBF809161
:10096000E400891721F481E080931D01F9C0809192
:100970001A01882309F4F4C03FB7F8945093E900B2
:10098000E9CF8091F2002A2F281B822F90E0681770
:10099000790708F4262F822F90E08134910508F022
:1009A000C6C08A5A9F4FFC01EE0FFF1F0590F491BD
:1009B000E02D099489918093F10089918093F10051
:1009C00089918093F10089918093F10089918093BE
:1009D000F10089918093F10089918093F1008991D0
:1009E0008093F10089918093F10089918093F100C7
:1009F00089918093F10089918093F100899180938E
:100A0000F10089918093F10089918093F10089919F
:100A10008093F10089918093F10089918093F10096
:100A200089918093F10089918093F100899180935D
:100A3000F10089918093F10089918093F10089916F
:100A40008093F10089918093F10089918093F10066
:100A500089918093F10089918093F100899180932D
:100A6000F10089918093F10089918093F10089913F
:100A70008093F10089918093F10089918093F10036
:100A800089918093F10089918093F10089918093FD
:100A9000F10089918093F10089918093F10089910F
:100AA0008093F10089918093F10089918093F10006
:100AB00089918093F10089918093F10089918093CD
:100AC000F10089918093F10089918093F1008991DF
:100AD0008093F10089918093F10089918093F100D6
:100AE00089918093F10089918093F100899180939D
:100AF000F10089918093F10089918093F1008991AF
:100B00008093F10089918093F10089918093F100A5
:100B100089918093F10089918093F100899180936C
:100B2000F10089918093F10089918093F10089917E
:100B30008093F1008091E80085FD02C0B093E80049
:100B4000621B710940931C0104C054E0A0E4BAE3A5
:100B500045E06115710509F0FACE3FBF80E001C0A4
:100B60008FEFDF91CF9108959FB7F89480911C018A
:100B7000882341F084E08093E9008AE38093E800D1
:100B800010921C019FBF08958091100108958091DB
:100B90001101089580911201089580911B0108951B
:100BA000382F9FB7F89480911A01882339F022E0FA
:100BB0002093E9008091E80085FD03C09FBF8FEF7F
:100BC000089581EA8093F10080E28093F100109211
:100BD000F1001092F1001092F1001092F1002093B8
:100BE000F1001092F1003093F1001092F1008AE3CD
:100BF0008093E8009FBF80E008951F920F920FB688
:100C00000F9211248F939F938091E1001092E10045
:100C1000982F83FF11C01092E90081E08093EB00D0
:100C20001092EC0082E18093ED0088E08093F00068
:100C300010921A0110921B0192FF13C080911A01A9
:100C4000882379F080911C01882359F0815080938A
:100C50001C01882331F484E08093E9008AE38093C7
:100C6000E8009F918F910F900FBE0F901F901895E5
:100C70001F920F920FB60F9211240F931F932F9371
:100C80003F934F935F936F937F938F939F93AF9314
:100C9000BF93EF93FF931092E9008091E80083FFE8
:100CA0003CC14091F1003091F1008091F100682F3A
:100CB00070E02091F100922F80E0682B792B8091D9
:100CC000F100A82FB0E02091F100922F80E0A82B36
:100CD000B92B1091F1000091F10082EF8093E800B0
:100CE000363009F05AC02DE431E0A901455050409A
:100CF000F9013797859194918617970701F5FA01C5
:100D0000859194918A179B07D1F49A012E5F3F4FEA
:100D1000F901659174912E5F3F4FF9014491212FA4
:100D200030E0902F80E0282B392B2F3F310519F030
:100D300010F02FEF30E0241758F4422F09C0295F3C
:100D40003F4F495F5F4FF1E027373F0789F6E5C026
:100D50005EEF8091E800282F30E0C9018570907027
:100D6000892BB9F322FDDCC0342F413108F030E18A
:100D7000232FCB0106C0FC010196E491E093F10022
:100D800021502223C1F7630F711D431B5093E800CC
:100D90004423F9F63031E9F2C3C0353061F48EEF07
:100DA0008093E8008091E80080FFFCCF862F806868
:100DB0008093E300B5C0393051F5442309F0ADC04C
:100DC00060931A0110921B0110921C018EEF809308
:100DD000E80080E791E021E02093E900FC01019622
:100DE000E491E093EB00EE2369F0AC014F5F5F4FBD
:100DF000FC0184918093EC00CA010196FA013491C0
:100E00003093ED002F5F253039F78EE181C0383007
:100E100061F4403809F081C08091E80080FFFCCF88
:100E200080911A018093F10050C0313289F4413A27
:100E300009F073C08091E80080FFFCCFECE0F1E0A6
:100E400081918093F10081E0E331F807C9F73DC05B
:100E50003032A1F4413209F060C08091E80082FF95
:100E6000FCCFECE0F1E08091F100819381E0E3318F
:100E7000F807C9F78BEF8093E80027C0323251F4AE
:100E8000413209F04AC060931B018091E80080FF65
:100E9000FCCF1BC03323E9F48091E80080FFFCCF36
:100EA000423811F080E00DC0A093E9008091EB0082
:100EB00090E025E0969587952A95E1F7817010924C
:100EC000E9008093F1001092F1008EEF8093E8002A
:100ED00027C0313011F0333001F54230F1F4672B87
:100EE000E1F42A2F2F77822F81508430B0F48EEFD7
:100EF0008093E8002093E900333079F089E1809312
:100F0000EB0081E090E002C0880F991F2A95E2F77C
:100F10008093EA001092EA0003C081E28093EB0024
:100F2000FF91EF91BF91AF919F918F917F916F91C1
:100F30005F914F913F912F911F910F910F900FBE95
:100F40000F901F9018951F93CF93DF93EC01FE0134
:100F500021961491112349F01A3019F48DE00E9462
:100F60002A04812F0E942A04F2CFDF91CF911F9192
:100F70000895982F8A3010F087E301C080E3890F2D
:100F80000E942A0408951F93182F82958F700E9443
:100F9000B907812F8F700E94B9071F9108951F9381
:100FA000182F892F0E94C307812F0E94C3071F910A
:100FB00008950E94C3070895EF92FF920F931F9325
:100FC000DF93CF93CDB7DEB72B970FB6F894DEBF84
:100FD0000FBECDBF8E010F5F1F4F2BE0F8011192A6
:100FE0002A95E9F7A8012AE030E00E94980A3BE040
:100FF000E32EF12CEC0EFD1EF8018081882311F008
:101000000E942A040F5F1F4F0E151F05A9F72B968C
:101010000FB6F894DEBF0FBECDBFCF91DF911F9109
:101020000F91FF90EF900895EF92FF920F931F930F
:10103000DF93CF93CDB7DEB72B970FB6F894DEBF13
:101040000FBECDBF8E010F5F1F4F2BE0F801119235
:101050002A95E9F7A8012AE030E00E94640A4CE0F2
:10106000E42EF12CEC0EFD1EF8018081882311F096
:101070000E942A040F5F1F4F0E151F05A9F72B961C
:101080000FB6F894DEBF0FBECDBFCF91DF911F9199
:101090000F91FF90EF900895EF92FF920F931F939F
:1010A000DF93CF9300D000D000D0CDB7DEB78E0154
:1010B0000F5F1F4F26E0F80111922A95E9F7B8015A
:1010C0004AE050E00E94BD0A56E0E52EF12CEC0EFD
:1010D000FD1EF8018081882311F00E942A040F5F11
:1010E0001F4F0E151F05A9F726960FB6F894DEBF01
:1010F0000FBECDBFCF91DF911F910F91FF90EF9069
:101100000895EF92FF920F931F93DF93CF93CDB784
:10111000DEB727970FB6F894DEBF0FBECDBF8E01A6
:101120000F5F1F4F27E0F80111922A95E9F7B801E8
:101130004AE050E00E94430A68E0E62EF12CEC0EF3
:10114000FD1EF8018081882311F00E942A040F5FA0
:101150001F4F0E151F05A9F727960FB6F894DEBF8F
:101160000FBECDBFCF91DF911F910F91FF90EF90F8
:1011700008950CD0EBC0E3D040F0DAD030F021F489
:101180005F3F19F0CCC0511115C1CFC0F0D098F31A
:101190009923C9F35523B1F3951B550BBB27AA27F8
:1011A00062177307840738F09F5F5F4F220F331F6A
:1011B000441FAA1FA9F333D00E2E3AF0E0E830D036
:1011C00091505040E695001CCAF729D0FE2F27D039
:1011D000660F771F881FBB1F261737074807AB0707
:1011E000B0E809F0BB0B802DBF01FF2793585F4F7C
:1011F0002AF09E3F510568F092C0DCC05F3FECF3DF
:10120000983EDCF3869577956795B795F7959F5F40
:10121000C9F7880F911D9695879597F90895E1E094
:10122000660F771F881FBB1F621773078407BA07F3
:1012300020F0621B730B840BBA0BEE1F88F7E0954E
:10124000089504D06894B111B5C0089598D088F07D
:101250009F5790F0B92F9927B751A0F0D1F0660FA2
:10126000771F881F991F1AF0BA95C9F712C0B130BD
:1012700081F09FD0B1E008959CC0672F782F882718
:10128000B85F39F0B93FCCF3869577956795B395FC
:10129000D9F73EF490958095709561957F4F8F4F6B
:1012A0009F4F0895E89409C097FB3EF49095809570
:1012B000709561957F4F8F4F9F4F9923A9F0F92F1C
:1012C00096E9BB279395F695879577956795B7959A
:1012D000F111F8CFFAF4BB0F11F460FF1BC06F5F80
:1012E0007F4F8F4F9F4F16C0882311F096E911C092
:1012F000772321F09EE8872F762F05C0662371F0B3
:1013000096E8862F70E060E02AF09A95660F771FC6
:10131000881FDAF7880F9695879597F9089597F9BA
:101320009F6780E870E060E008959FEF80EC08958B
:1013300000240A94161617061806090608950024B4
:101340000A9412161306140605060895092E03942E
:10135000000C11F4882352F0BB0F40F4BF2B11F4A2
:1013600060FF04C06F5F7F4F8F4F9F4F089557FD01
:101370009058440F551F59F05F3F71F04795880F03
:1013800097FB991F61F09F3F79F08795089512169A
:1013900013061406551FF2CF4695F1DF08C0161646
:1013A00017061806991FF1CF8695710561050894F7
:1013B0000895E894BB2766277727CB0197F908950E
:1013C0000BD0C4CFB5DF28F0BADF18F0952309F0B1
:1013D000A6CFABCF1124EECFCADFA0F3959FD1F3F8
:1013E000950F50E0551F629FF001729FBB27F00DD3
:1013F000B11D639FAA27F00DB11DAA1F649F662728
:10140000B00DA11D661F829F2227B00DA11D621F76
:10141000739FB00DA11D621F839FA00D611D221F30
:10142000749F3327A00D611D231F849F600D211D14
:10143000822F762F6A2F11249F5750408AF0E1F0B7
:1014400088234AF0EE0FFF1FBB1F661F771F881F00
:1014500091505040A9F79E3F510570F060CFAACF40
:101460005F3FECF3983EDCF3869577956795B795EB
:10147000F795E7959F5FC1F7FE2B880F911D969515
:10148000879597F90895FB019F01E8944230C4F0D5
:101490004532B4F44A3029F497FB1EF490958195B7
:1014A0009F4F642F77270E94E30A805D8A330CF0F8
:1014B000895D8193CB010097A1F716F45DE251930A
:1014C0001082C9010C94D30AFA01CF93FF93EF93D2
:1014D000223044F1253234F5C22FE894CA3049F461
:1014E00097FB3EF490958095709561957F4F8F4F57
:1014F0009F4F2C2F332744275527FF93EF930E94AC
:10150000F70AEF91FF91605D6A330CF0695D6193BA
:10151000B901CA01605070408040904051F716F404
:10152000CDE2C19310828F919F91CF910C94D30AF9
:10153000FA01CF93FF93EF932230CCF02532BCF425
:10154000C22F2C2F332744275527FF93EF930E9458
:10155000F70AEF91FF91605D6A330CF0695D61936A
:10156000B901CA01605070408040904051F710822C
:101570008F919F91CF910C94D30AFB019F01423030
:1015800074F0453264F4642F77270E94E30A805D8B
:101590008A330CF0895D8193CB010097A1F710820B
:1015A000C9010C94D30ADC01FC01672F71917723E8
:1015B000E1F7329704C07C916D9370836291AE170E
:1015C000BF07C8F30895AA1BBB1B51E107C0AA1FA0
:1015D000BB1FA617B70710F0A61BB70B881F991FD4
:1015E0005A95A9F780959095BC01CD010895A1E287
:1015F0001A2EAA1BBB1BFD010DC0AA1FBB1FEE1F8D
:10160000FF1FA217B307E407F50720F0A21BB30BD7
:10161000E40BF50B661F771F881F991F1A9469F753
:1016200060957095809590959B01AC01BD01CF01AF
:061630000895F894FFCFBD
:1016360005000500050005000100010000E10000AD
:041646000000080098
:00000001FF
