:100000000C94F9000C9416010C9416010C94160132
:100010000C9416010C9416010C9416010C94160104
:100020000C9416010C9416010C9480040C94BA04E0
:100030000C9416010C9416010C9416010C941601E4
:100040000C9416010C9416010C9416010C941601D4
:100050000C9416010C9416010C9416010C941601C4
:100060000C9416010C9416010C9416010C941601B4
:100070000C9416010C9416010C9416010C941601A4
:100080000C9416010C9416010C9416010C94160194
:100090000C9416010C9416010C9416010C94160184
:1000A0000C9416010C9416010C94160128042004DB
:1000B0001804100408040004F803F003E803E00344
:1000C000D803D003C803C003B803B003A803A00338
:1000D0009803900388038003780370036803600328
:1000E0005803500348034003380330032803200318
:1000F0001803100308030003F802F002E802E0020C
:10010000D802D002C802C002B802B002A802A002FF
:1001100098029002880280027802700268026002EF
:100120005802500248024002380230022802746825
:10013000652066726571756E63792069733A000097
:10014000010000D6011200020000930143000300E9
:10015000008F0104010309047B01120203090473E7
:100160000106030309046901080803340031003063
:1001700000000006034D003200000012034A002E6A
:100180000020004600690065006E00650000000464
:1001900003090409024300020100C03209040000FF
:1001A00001020201000524001001052401010104DF
:1001B00024020605240600010705820310004009F9
:1001C000040100020A0000000705030240000007C6
:1001D0000584024000001201000202000010C01657
:1001E0007A040001010203010001C11201803601FD
:1001F000813611241FBECFEFDAE0DEBFCDBF11E0A4
:10020000A0E0B1E0E2EBFFE002C005900D92A83063
:10021000B107D9F721E0A8E0B1E001C01D92AC30F0
:10022000B207E1F70E940A070C94D7070C9400006C
:100230008091E80080FFFCCF089581E08093D70093
:1002400080EA8093D80082E189BD09B400FEFDCF29
:1002500080E98093D8001092E00010920B01109278
:1002600008018CE08093E2007894089580910B015E
:1002700008959FB7F89480910B01882339F083E0AB
:100280008093E9008091E80085FD03C09FBF8FEF58
:1002900008958091F1002091E80025FD03C02BE630
:1002A0002093E8009FBF08959FB7F89480910B01B9
:1002B000882331F083E08093E9008091F20001C04F
:1002C00080E09FBF089580910B01882371F08FB764
:1002D000F89493E09093E9002BE69091E80095FF65
:1002E00003C02093E800F9CF8FBF089590910B01D0
:1002F000992371F09FB7F89424E02093E9002091AE
:100300000901222349F02091E80025FD03C09FBF89
:100310008FEF0895109209012091E400275E34E0E8
:100320004091E80045FD12C09FBF9091E4009213F8
:1003300004C081E080930901EBCF90910B019923D8
:1003400039F39FB7F8943093E900EACF8093F10036
:100350008091E80085FD03C08AE38093E80085E092
:1003600080930A019FBF80E0089590910B0199232B
:10037000D1F09FB7F89424E02093E9002091E800A1
:1003800025FD02C09FBF0FC08093F1008091E8005F
:1003900085FD03C08AE38093E80085E080930A012D
:1003A0009FBF80E008958FEF0895EF92FF921F9313
:1003B000CF93DF937C01CB0120910B01222371F0BD
:1003C000AFB7F89424E02093E9002091090122239B
:1003D00049F02091E80025FD03C0AFBF8FEF42C276
:1003E00010920901B4E0C0E4DAE315E0009709F4E3
:1003F00037C22091E400275E3091E80035FD12C03D
:10040000AFBF3091E400321304C081E08093090152
:10041000E5CF30910B01332309F3AFB7F894B093D4
:10042000E900EACF2091F2004C2F421B242F30E04C
:100430008217930708F4482F841B910950E0413438
:10044000510508F0FDC14A5A5F4FFA010C946B0741
:10045000F70120812093F10097012F5F3F4F790131
:10046000F70120812093F10097012F5F3F4F790121
:10047000F70120812093F10097012F5F3F4F790111
:10048000F70120812093F10097012F5F3F4F790101
:10049000F70120812093F10097012F5F3F4F7901F1
:1004A000F70120812093F10097012F5F3F4F7901E1
:1004B000F70120812093F10097012F5F3F4F7901D1
:1004C000F70120812093F10097012F5F3F4F7901C1
:1004D000F70120812093F10097012F5F3F4F7901B1
:1004E000F70120812093F10097012F5F3F4F7901A1
:1004F000F70120812093F10097012F5F3F4F790191
:10050000F70120812093F10097012F5F3F4F790180
:10051000F70120812093F10097012F5F3F4F790170
:10052000F70120812093F10097012F5F3F4F790160
:10053000F70120812093F10097012F5F3F4F790150
:10054000F70120812093F10097012F5F3F4F790140
:10055000F70120812093F10097012F5F3F4F790130
:10056000F70120812093F10097012F5F3F4F790120
:10057000F70120812093F10097012F5F3F4F790110
:10058000F70120812093F10097012F5F3F4F790100
:10059000F70120812093F10097012F5F3F4F7901F0
:1005A000F70120812093F10097012F5F3F4F7901E0
:1005B000F70120812093F10097012F5F3F4F7901D0
:1005C000F70120812093F10097012F5F3F4F7901C0
:1005D000F70120812093F10097012F5F3F4F7901B0
:1005E000F70120812093F10097012F5F3F4F7901A0
:1005F000F70120812093F10097012F5F3F4F790190
:10060000F70120812093F10097012F5F3F4F79017F
:10061000F70120812093F10097012F5F3F4F79016F
:10062000F70120812093F10097012F5F3F4F79015F
:10063000F70120812093F10097012F5F3F4F79014F
:10064000F70120812093F10097012F5F3F4F79013F
:10065000F70120812093F10097012F5F3F4F79012F
:10066000F70120812093F10097012F5F3F4F79011F
:10067000F70120812093F10097012F5F3F4F79010F
:10068000F70120812093F10097012F5F3F4F7901FF
:10069000F70120812093F10097012F5F3F4F7901EF
:1006A000F70120812093F10097012F5F3F4F7901DF
:1006B000F70120812093F10097012F5F3F4F7901CF
:1006C000F70120812093F10097012F5F3F4F7901BF
:1006D000F70120812093F10097012F5F3F4F7901AF
:1006E000F70120812093F10097012F5F3F4F79019F
:1006F000F70120812093F10097012F5F3F4F79018F
:10070000F70120812093F10097012F5F3F4F79017E
:10071000F70120812093F10097012F5F3F4F79016E
:10072000F70120812093F10097012F5F3F4F79015E
:10073000F70120812093F10097012F5F3F4F79014E
:10074000F70120812093F10097012F5F3F4F79013E
:10075000F70120812093F10097012F5F3F4F79012E
:10076000F70120812093F10097012F5F3F4F79011E
:10077000F70120812093F10097012F5F3F4F79010E
:10078000F70120812093F10097012F5F3F4F7901FE
:10079000F70120812093F10097012F5F3F4F7901EE
:1007A000F70120812093F10097012F5F3F4F7901DE
:1007B000F70120812093F10097012F5F3F4F7901CE
:1007C000F70120812093F10097012F5F3F4F7901BE
:1007D000F70120812093F10097012F5F3F4F7901AE
:1007E000F70120812093F10097012F5F3F4F79019E
:1007F000F70120812093F10097012F5F3F4F79018E
:10080000F70120812093F10097012F5F3F4F79017D
:10081000F70120812093F10097012F5F3F4F79016D
:10082000F70120812093F10097012F5F3F4F79015D
:10083000F70120812093F10097012F5F3F4F79014D
:10084000F70120812093F10097012F5F3F4F79013D
:100850002091E80025FFD093E80010930A01C6CD4F
:10086000AFBF80E0DF91CF911F91FF90EF9008958F
:100870008FB7F89490910A01992341F094E09093F6
:10088000E9009AE39093E80010920A018FBF08955F
:1008900080910401089580910501089580910601D9
:1008A00008958091080108959FB7F89420910B0155
:1008B000222339F022E02093E9003091E80035FD51
:1008C00003C09FBF8FEF089531EA3093F10030E20B
:1008D0003093F1001092F1001092F1001092F100AB
:1008E0001092F1002093F1001092F1008093F1003A
:1008F0001092F1008AE38093E8009FBF80E00895A2
:100900001F920F920FB60F9211248F939F93809195
:10091000E1001092E10083FF11C01092E90091E024
:100920009093EB001092EC0092E19093ED0098E030
:100930009093F00010920B011092080182FF13C0F7
:1009400080910B01882379F080910A01882359F066
:10095000815080930A01811106C084E08093E900F0
:100960008AE38093E8009F918F910F900FBE0F90C4
:100970001F9018951F920F920FB60F921124EF92AD
:10098000FF920F931F932F933F934F935F936F9318
:100990007F938F939F93AF93BF93EF93FF93CF93E7
:1009A000DF931F92CDB7DEB71092E9008091E80087
:1009B00083FF14C19091F1008091F1003091F1001A
:1009C0002091F100E32EF12CF22A0091F100209108
:1009D000F10010E0122B2091F1006091F10032EF54
:1009E0003093E800863009F046C036E08FE391E0AE
:1009F000FC01459154914E155F0539F4FC01329686
:100A0000459154914017510721F00796315081F7D5
:100A1000E5C0FC01349645915491FC0136968491D1
:100A200030E0362B2F3F310519F010F02FEF30E07A
:100A3000281708F4822F3EEF9091E800292F2570A7
:100A4000D9F392FDCEC0982F813108F090E1FA01E0
:100A5000292F222331F064916093F10021503196C7
:100A6000F8CF490F511D891B3093E8008111E4CF65
:100A7000903111F3B6C0853051F48EEF8093E800C9
:100A80000E9418018E2D80688093E300AAC08930EF
:100A900059F5911180C0E0920B011092080110925B
:100AA0000A018EEF8093E80041E088EE91E04093E8
:100AB000E9009C012F5F3F4FFC0154915093EB00E4
:100AC000552359F0F90124912093EC009C012D5FEE
:100AD0003F4F319684918093ED004F5F453011F088
:100AE000C901E5CF8EE175C0883051F4903809F026
:100AF00052C00E94180180910B018093F10047C001
:100B0000813279F4913A09F046C00E941801E0E080
:100B1000F1E081918093F10081E0E730F807C9F7B7
:100B200036C0803299F49132B1F58091E80082FFAD
:100B3000FCCFE0E0F1E08091F100819381E0E730CB
:100B4000F807C9F78BEF8093E80021C0823241F4A7
:100B5000913209F043C0E09208010E94180117C0C9
:100B6000811119C099830E9418019981923851F41A
:100B70000093E9008091EB0085FB882780F91092B3
:100B8000E90001C080E08093F1001092F1008EEF47
:100B90008093E80026C0282F2D7F2130F9F4923071
:100BA000E9F4EF28D9F40F779FEF900F9430B0F469
:100BB0009EEF9093E8000093E900833079F089E19B
:100BC0008093EB0081E090E0002E01C0880F0A9432
:100BD000EAF78093EA001092EA0003C081E2809372
:100BE000EB000F90DF91CF91FF91EF91BF91AF910B
:100BF0009F918F917F916F915F914F913F912F9135
:100C00001F910F91FF90EF900F900FBE0F901F90CC
:100C100018951F93CF93DF93EC01FE0114911123DC
:100C200051F01A3019F48DE00E947601812F0E9454
:100C300076012196F2CFDF91CF911F9108958A30EE
:100C400010F490E301C097E3890F0C947601CF93E1
:100C5000C82F82958F700E941F068C2F8F70CF91A6
:100C60000C941F06CF93C82F892F0E9427068C2F24
:100C7000CF910C9427060C942706EF92FF920F93C6
:100C80001F93CF93DF93CDB7DEB727970FB6F894B6
:100C9000DEBF0FBECDBF8E010F5F1F4F27E0F801F3
:100CA00011922A95E9F74AE0B8010E9471077E0186
:100CB000F8E0EF0EF11CF80181918F0181110E9483
:100CC00076010E151F05B9F727960FB6F894DEBF0B
:100CD0000FBECDBFDF91CF911F910F91FF90EF908D
:100CE0000895EF92FF920F931F93CF93DF9300D05D
:100CF00000D000D0CDB7DEB78E010F5F1F4F26E0CA
:100D0000F80111922A95E9F74AE0B8010E94AD076F
:100D10007E01F6E0EF0EF11CF80181918F01811147
:100D20000E9476010E151F05B9F726960FB6F894A6
:100D3000DEBF0FBECDBFDF91CF911F910F91FF900E
:100D4000EF900895EF92FF920F931F93CF93DF934D
:100D5000CDB7DEB72B970FB6F894DEBF0FBECDBF71
:100D60008E010F5F1F4F2BE0F80111922A95E9F7D2
:100D70002AE0A8010E947C077E01FCE0EF0EF11C36
:100D8000F80181918F0181110E9476010E151F05D6
:100D9000B9F72B960FB6F894DEBF0FBECDBFDF912B
:100DA000CF911F910F91FF90EF900895EF92FF92D6
:100DB0000F931F93CF93DF93CDB7DEB72B970FB66B
:100DC000F894DEBF0FBECDBF8E010F5F1F4F2BE02B
:100DD000F80111922A95E9F72AE0A8010E948B07F1
:100DE0007E01FBE0EF0EF11CF80181918F01811172
:100DF0000E9476010E151F05B9F72B960FB6F894D1
:100E0000DEBF0FBECDBFDF91CF911F910F91FF903D
:100E1000EF9008950E941D010E9436018823E1F39E
:100E200080988898509A5898519A599880E8809359
:100E30006100109261008091810084608093810044
:100E40008091810088608093810084E294EF909388
:100E500089008093880000E010E0C0E0D0E020919D
:100E60008400309185008091880090918900281736
:100E7000390788F4789B04C0012B29F4219603C01C
:100E800000E010E002C001E010E080917A00806193
:100E900080937A00E4CF8EE291E00E940906CE01B1
:100EA0000E9471068AE00E9476018DE00E94760120
:100EB000CE01895C9109873C910518F4599A58989C
:100EC000CCCFC957D540C73CD10510F4589A01C0C2
:100ED00058985998C2CFEE0FFF1F0590F491E02D5E
:100EE0000994BB274A3031F4992322F4BDE290954E
:100EF00081959F4F0C94AE07BB272A3051F499235C
:100F000042F4BDE290958095709561957F4F8F4F2B
:100F10009F4F0C948C07BB27FA01A62F621771050F
:100F200081059105330B30FB66F0AA27660F771F0A
:100F3000881F991FAA1FA21710F0A21B6395385093
:100F4000A9F7A05DAA3308F0A95DA19336F7B11106
:100F5000B1931082CA010C94C707BB27FB01552728
:100F6000AA27880F991FAA1FA41710F0A41B839506
:100F70005051B9F7A05DAA3308F0A95DA19300977D
:100F800079F7B111B1931192CB010C94C707DC0131
:100F9000FC01672F71917723E1F7329704C07C91B0
:100FA0006D9370836291AE17BF07C8F30895F894EC
:020FB000FFCF71
:080FB20000E10000000008004E
:00000001FF
